:030000000208B63D
:0C08B600787FE4F6D8FD7581710208FD22
:100942001250002700470087002B004B008B002D20
:10095200004D008D0A620002000400060007000933
:100962002048080047004B00FF00FF00FF00FF0087
:10097200FF00FF00FF0027008D004B002700FF0053
:10098200FF00FF00FF00FF0027008D004B002B003F
:1009920047002D00FF00FF00FF0047008D004B00C5
:0B09A200470047002D002B00FF00FF66
:1009AE00E4F56CF56D1209E4D2901209E6056DE5D9
:1009BE006D7002056CC39403E56C940040E775A856
:1009CE0082758901758CB1758AE0D28C1209E4D2D8
:0609DE00901209E680F60C
:03000B00020800E8
:10080000C0E0C0F0C083C082C0D075D000C000C0BE
:0D08100001C002C003C004C005C006C0073F
:10081D00C28C758CB1758AE0D28C756E00756F00C7
:10082D00E4FFF570F57175A00FE5A0640F605FE54D
:10083D00A0640F6059ADA0ED24F5601824FE600C86
:10084D0024067016756E00756F00800E756E00753E
:10085D006F018006756E00756F0275A0F0ADA0ED8D
:10086D002450601024E060082460700A7F00800628
:10087D007F0180027F02E56F75F006A42450F8EF2A
:0E088D0025E028F808E6F5801209E6758000DF
:10089B00D007D006D005D004D003D002D001D000B1
:0B08AB00D0D0D082D083D0F0D0E0325B
:0609E400C2907F107E2787
:1009EA00E4FDFCC3ED9FEC9E50070DBD00010C8099
:0109FA00F20A
:0109FB0022D9
:1008C2000209AEE493A3F8E493A34003F68001F295
:1008D20008DFF48029E493A3F85407240CC8C33337
:1008E200C4540F4420C8834004F456800146F6DF06
:1008F200E4800B0102040810204080900942E47E4B
:10090200019360BCA3FF543F30E509541FFEE493FA
:10091200A360010ECF54C025E060A840B8E493A3C1
:10092200FAE493A3F8E493A3C8C582C8CAC583CAEC
:10093200F0A3C8C582C8CAC583CADFE9DEE780BEA4
:0109AD000049
:00000001FF
