:03000000020800F3
:0C080000787FE4F6D8FD758108020847F7
:0309070001088064
:1008D300758160D2AFD288D2A8E508F4F5807F1085
:1008E3007E271208F5E508C313F50870EC75088038
:0208F30080E79C
:1008F500E4FDFCC3ED9FEC9E50070DBD00010C808F
:01090500F2FF
:0109060022CE
:0300030002088C64
:10088C00C0E0C0D075D000C001C002C003C004C01D
:05089C0005C006C007C5
:1008A100A9087580FFE4FBFA7F107E271208F56323
:0F08B10080FF0BBB00010AEB640A4A70EB890859
:1008C000D007D006D005D004D003D002D001D0D0BC
:0308D000D0E03243
:10080C000208D3E493A3F8E493A34003F68001F227
:10081C0008DFF48029E493A3F85407240CC8C333ED
:10082C00C4540F4420C8834004F456800146F6DFBC
:10083C00E4800B0102040810204080900907E47E3C
:10084C00019360BCA3FF543F30E509541FFEE493B1
:10085C00A360010ECF54C025E060A840B8E493A378
:10086C00FAE493A3F8E493A3C8C582C8CAC583CAA3
:10087C00F0A3C8C582C8CAC583CADFE9DEE780BE5B
:01090A0000EC
:00000001FF
