:03000000020800F3
:0C080000787FE4F6D8FD758121020847DE
:100A7E00010800011D00011E080A13C0F9A4B09957
:0B0A8E009282F88090040F000000002E
:10088C00758921D2B9C28D758CB1758AE0D28C75FF
:10089C008DFDD28EE4F58775985075A892F580F58C
:1008AC0090F5A0F50EE4F50CD2A77F01FE120A9A82
:1008BC00C2A77F217E00120A9A30B21C7F057E00EF
:1008CC00120A9A050CE50CD394FA4003750CFAAF96
:1008DC000C7E001209D480E1850C20E50EB4FFC516
:1008EC00E520D3940A400575900A80B9E4F5907F11
:1008FC008D7E20120A9A7590067FC37EA2120A9AE8
:05090C00E4F59080A05D
:100A9A00E4FDFCC3ED9FEC9E50070DBD00010C80E8
:010AAA00F259
:010AAB002228
:03002300020A5C72
:100A5C00C0E0C0D085D00DC29885998085991FE5DE
:100A6C001FB44306630EFF759000850DD0D0D0D017
:020A7C00E03266
:03000B00020911D6
:10091100C0E0C083C082C0D0F52185D00B85820A9A
:10092100858309C28C758CB1758AE0D28CE50E7015
:1009310039E51FB45102802FE51FB45305759005A9
:100941008028E51FB44405759009801EE51FB44158
:10095100057590068014E51FB4570FE520D3940A5E
:10096100400575900A8003759000E521850BD085BF
:0E0971000A82850983D0D0D082D083D0E032B4
:03001B00020A23B3
:100A2300C0E0C0D075D000C000758DEC758B78E543
:100A33001EC313F51E051D7005751E08F51D758073
:100A4300FFE51EF4F5A0740F251DF8E62413F8E660
:090A5300F580D000D0D0D0E032D3
:1009D400AB07AA067C037DE812097F8F127C037D96
:1009E400E8AF03AE0212097F7E007F64CFCDCFCE85
:1009F400CCCE12097F8F117C007D64AF03AE02124E
:100A0400097F7E007F0ACFCDCFCECCCE12097F8F57
:0F0A140010AE02AF037C007D0A12097F8D0F2206
:10080C0002088CE493A3F8E493A34003F68001F26E
:10081C0008DFF48029E493A3F85407240CC8C333ED
:10082C00C4540F4420C8834004F456800146F6DFBC
:10083C00E4800B0102040810204080900A7EE47EC4
:10084C00019360BCA3FF543F30E509541FFEE493B1
:10085C00A360010ECF54C025E060A840B8E493A378
:10086C00FAE493A3F8E493A3C8C582C8CAC583CAA3
:10087C00F0A3C8C582C8CAC583CADFE9DEE780BE5B
:010A9900005C
:10097F00BC000BBE0029EF8DF084FFADF022E4CC5C
:10098F00F875F008EF2FFFEE33FEEC33FCEE9DEC25
:10099F00984005FCEE9DFE0FD5F0E9E4CEFD22ED6B
:1009AF00F8F5F0EE8420D21CFEADF075F008EF2FB5
:1009BF00FFED33FD4007985006D5F0F222C398FDA6
:0509CF000FD5F0EA2243
:00000001FF
