:03000000020800F3
:0C080000787FE4F6D8FD75811A020847E5
:100947001008C0F9A4B0999282F8809000000000C6
:0209570000009E
:1008FC00E4F519C290120931D2901209310519E5AB
:10090C0019C3940240EDE4F51974082519F8E6F5BD
:10091C00801209310519E519C3940A40EC7580C0A1
:05092C0012088C80FBA5
:040931007F107E278E
:10093500E4FDFCC3ED9FEC9E50070DBD00010C804E
:01094500F2BF
:01094600228E
:10088C00E4F51A75A00FE5A0640F60637F567E0433
:10089C00120935E5A0640F6056AFA0EF24F5600D8A
:1008AC0024FE600E2406700D751801800875180260
:1008BC00800375180375A0F0AFA0EF2450600D24D1
:1008CC00E0600D2460700F851818800A7403800294
:1008DC0074062518F51874082518F8E6F580E51A3D
:0F08EC00C39432500AE5A064F06004051A80EF4F
:0108FB0022DA
:10080C000208FCE493A3F8E493A34003F68001F2FE
:10081C0008DFF48029E493A3F85407240CC8C333ED
:10082C00C4540F4420C8834004F456800146F6DFBC
:10083C00E4800B0102040810204080900947E47EFC
:10084C00019360BCA3FF543F30E509541FFEE493B1
:10085C00A360010ECF54C025E060A840B8E493A378
:10086C00FAE493A3F8E493A3C8C582C8CAC583CAA3
:10087C00F0A3C8C582C8CAC583CADFE9DEE780BE5B
:01095900009D
:00000001FF
