:03000000020800F3
:0C080000787FE4F6D8FD758116020847E9
:10088C000A0CC0F9A4B0999282F880900408000078
:02089C0000005A
:0208B10080FEC7
:10089F00E4FDFCC3ED9FEC9E50070DBD00010C80E5
:0108AF00F256
:0108B0002225
:10080C000208B1E493A3F8E493A34003F68001F249
:10081C0008DFF48029E493A3F85407240CC8C333ED
:10082C00C4540F4420C8834004F456800146F6DFBC
:10083C00E4800B010204081020408090088CE47EB8
:10084C00019360BCA3FF543F30E509541FFEE493B1
:10085C00A360010ECF54C025E060A840B8E493A378
:10086C00FAE493A3F8E493A3C8C582C8CAC583CAA3
:10087C00F0A3C8C582C8CAC583CADFE9DEE780BE5B
:01089E000059
:00000001FF
