:030000000208C231
:0C08C200787FE4F6D8FD75811C0209095E
:100ABD000A11C0F9A4B0999282F88090040D00003B
:020ACD00000027
:10080000E4F51CC2807F107E27120AABD2807F10D5
:100810007E27120AAB051CE51CC3940340E5D2AC4D
:10082000D2AF758921759850E4F587750CFF758DE9
:10083000FDD28ED2A9D2AB758CB1758AE0D28CE490
:10084000F50BD2A77F01FE120AABC2A77F217E0063
:10085000120AAB30B2157F057E00120AAB050BE51C
:100860000BD394FA40ED750BFA80E8850B08AF08BE
:100870007E00120A0A120AA575A00D7411250F1226
:100880000AA175A00B7411250E120AA175A0077498
:1008900011250DF8E6F580E50C70A4E508D3940A5F
:1008A000400675900A02083FE4F5907F8D7E201285
:1008B0000AAB7590067FC37EA2120AABE4F59002E4
:0208C000083FEF
:0300230002094E81
:10094E00C0E0C0F0C083C082C0D075D000C000C06F
:10095E0001C002C003C004C005C006C0073098170E
:10096E00C29885991BC2807FE87E03120AABD280A3
:10097E007FE87E03120AABE51BB44505750CFF80BC
:10098E0008E51BB45206750C00759000D007D00612
:10099E00D005D004D003D002D001D000D0D0D08268
:0709AE00D083D0F0D0E0324D
:03000B00020A598D
:100A5900C0E0C0D0C28C758CB1758AE0D28CE50C2F
:100A6900F47030E51BB4570575900A8026E51BB470
:100A79004105759006801CE51BB4530575900580EA
:100A890012E51BB444057590098008E51BB45103B0
:080A9900759000D0D0D0E032CE
:0A0AA100F8E6F580D2A77F017E0081
:100AAB00E4FDFCC3ED9FEC9E50070DBD00010C80D7
:010ABB00F248
:010ABC002217
:100A0A00AB07AA067C037DE81209B58F107C037D2B
:100A1A00E8AF03AE021209B57E007F64CFCDCFCE18
:100A2A00CCCE1209B58F0F7C007D64AF03AE0212E3
:100A3A0009B57E007F0ACFCDCFCECCCE1209B58FB5
:0F0A4A000EAE02AF037C007D0A1209B58D0D229E
:1008CE00020800E493A3F8E493A34003F68001F238
:1008DE0008DFF48029E493A3F85407240CC8C3332B
:1008EE00C4540F4420C8834004F456800146F6DFFA
:1008FE00E4800B0102040810204080900ABDE47EC3
:10090E00019360BCA3FF543F30E509541FFEE493EE
:10091E00A360010ECF54C025E060A840B8E493A3B5
:10092E00FAE493A3F8E493A3C8C582C8CAC583CAE0
:10093E00F0A3C8C582C8CAC583CADFE9DEE780BE98
:010ACF000026
:1009B500BC000BBE0029EF8DF084FFADF022E4CC26
:1009C500F875F008EF2FFFEE33FEEC33FCEE9DECEF
:1009D500984005FCEE9DFE0FD5F0E9E4CEFD22ED35
:1009E500F8F5F0EE8420D21CFEADF075F008EF2F7F
:1009F500FFED33FD4007985006D5F0F222C398FD70
:050A05000FD5F0EA220C
:00000001FF
