:03000000020917DB
:0C091700787FE4F6D8FD75810902080025
:10080000E4F508F509C280D2837FA07E861209052F
:10081000D280C2837FA07E861209050509E5097092
:10082000020508C39403E508940040D9D283D2AFEF
:10083000758911D2BBD2A9758CEC758A78D28CD20D
:10084000AB758DB1758BE0D28EC2817F887E13121D
:0D0850000905D2817F887E1312090580EC16
:03000B0002085D8B
:10085D00C0E0C0F0C083C082C0D075D000C000C061
:10086D0001C002C003C004C005C006C007C28C751C
:10087D008CEC758A78C2807FE87E03120905D280E0
:10088D007FE87E03120905D28CD007D006D005D0A3
:10089D0004D003D002D001D000D0D0D082D083D0EC
:0408AD00F0D0E03275
:03001B000208B127
:1008B100C0E0C0F0C083C082C0D075D000C000C00D
:1008C10001C002C003C004C005C006C007C28E75C6
:1008D1008DB1758BE0C2837FA07E0F120905D28393
:1008E1007FA07E0F120905D28ED007D006D005D089
:1008F10004D003D002D001D000D0D0D082D083D098
:04090100F0D0E03220
:10090500E4FDFCC3ED9FEC9E50070DBD00010C807E
:01091500F2EF
:0109160022BE
:00000001FF
