:030000000209D71B
:0C09D700787FE4F6D8FD758124020A1E2A
:100C4C000A0FC0F9A4B0999282F88090040B0000AE
:020C5C00000096
:100AE400E4F51CC2977F107E27120C21D2977F1049
:100AF4007E27120C21051CE51CC3940340E5D2AFEC
:100B0400D2AC758929759850E4F587750AFF758DFF
:100B1400FDD2ABD28ED28CF58CF58A43B004120A86
:100B2400637F027E00120C33E50A70F2D3E51A9457
:100B340014E5199400400575900A80E2E4F5907F6D
:100B44008D7E20120C217590067F8D7E20120C2143
:020B540080CC53
:0300230002093996
:10093900C0E0C0F0C083C082C0D075D000C000C084
:1009490001C002C003C004C005C006C00730981723
:10095900C29885991BC2977FE87E03120C21D29712
:100969007FE87E03120C21E51BB44505750A00805A
:1009790042E51BB44608750AFF7580008035E50A13
:10098900F47030E51BB4570575900A8026E51BB451
:100999004105759006801CE51BB4530575900580CB
:1009A90012E51BB444057590098008E51BB4510391
:1009B900759000D007D006D005D004D003D002D05E
:0E09C90001D000D0D0D082D083D0F0D0E03268
:100C5F00E4F58CF58AD2B57F0AFE120C33C2B522A9
:100A6300E4F524F523F522F521C2AF120C5F30B271
:100A7300FD20B2FDD2AFAF8CEFFEAD8A7C00E42D3A
:100A8300FFEC3EFEE48F208E1FF51EF51D7F707E6A
:100A930094FDAB20AA1FA91EA81DC31208555033ED
:100AA300E47B3BFAF9F8AF20AE1FAD1EAC1D120B71
:100AB300A58E198F1AE51A45196010C3E51A9464B7
:100AC300E51994005005120B56800E751900751A1E
:100AD300638006751900751A63120BE9AE19AF1A14
:010AE30022F0
:100B5600AB07AA067C037DE81208008F0E7C037D96
:100B6600E8AF03AE021208007E007F64CFCDCFCE81
:100B7600CCCE1208008F0D7C007D64AF03AE02124E
:100B860008007E007F0ACFCDCFCECCCE1208008FD4
:0F0B96000CAE02AF037C007D0A1208008D0B220B
:100BE90075A00E740F250E120C1975A00D740F2522
:100BF9000D120C1975A00B740F250C120C1975A088
:100C090007740F250BF8E6F5807FC87E00020C21DA
:100C3300D3EF9400EE9400400F7DFADDFE7DF7DDE7
:080C4300FEEF1F70EB1E80E8BC
:010C4B002286
:080C1900F8E6F5807FC87E00BB
:100C2100E4FDFCC3ED9FEC9E50070DBD00010C805F
:010C3100F2D0
:010C3200229F
:1009E300020AE4E493A3F8E493A34003F68001F23C
:1009F30008DFF48029E493A3F85407240CC8C33315
:100A0300C4540F4420C8834004F456800146F6DFE3
:100A1300E4800B0102040810204080900C4CE47E1B
:100A2300019360BCA3FF543F30E509541FFEE493D8
:100A3300A360010ECF54C025E060A840B8E493A39F
:100A4300FAE493A3F8E493A3C8C582C8CAC583CACA
:100A5300F0A3C8C582C8CAC583CADFE9DEE780BE82
:010C5E000095
:10080000BC000BBE0029EF8DF084FFADF022E4CCDC
:10081000F875F008EF2FFFEE33FEEC33FCEE9DECA5
:10082000984005FCEE9DFE0FD5F0E9E4CEFD22EDEB
:10083000F8F5F0EE8420D21CFEADF075F008EF2F35
:10084000FFED33FD4007985006D5F0F222C398FD26
:050850000FD5F0EA22C3
:100BA500C2D5E830E70FB2D5E4C39BFBE49AFAE47B
:100BB50099F9E498F8EC30E717B2D5120BDB120877
:100BC500A7E4C39BFBE49AFAE499F9E498F8800357
:100BD5001208A730D50DE4C39FFFE49EFEE49DFDFA
:040BE500E49CFC226E
:10085500EB9FF5F0EA9E42F0E99D42F0EC6480C81A
:0608650064809845F022BA
:10086B0075F008758200EF2FFFEE33FECD33CDCC44
:10087B0033CCC58233C5829BED9AEC99E5829840C7
:10088B000CF582EE9BFEED9AFDEC99FC0FD5F0D6A4
:10089B00E4CEFBE4CDFAE4CCF9A88222B800C1B9CE
:1008AB000059BA002DEC8BF084CFCECDFCE5F0CB0C
:1008BB00F97818EF2FFFEE33FEED33FDEC33FCEB45
:1008CB0033FB10D703994004EB99FB0FD8E5E4F900
:1008DB00FA227818EF2FFFEE33FEED33FDEC33FCED
:1008EB00C933C910D7059BE99A4007EC9BFCE99AE1
:1008FB00F90FD8E0E4C9FAE4CCFB2275F010EF2F26
:10090B00FFEE33FEED33FDCC33CCC833C810D70725
:10091B009BEC9AE899400AED9BFDEC9AFCE899F860
:0E092B000FD5F0DAE4CDFBE4CCFAE4C8F922F3
:00000001FF
