:03000000020939B9
:0C093900787FE4F6D8FD7581200209806B
:100C00000A0FC0F9A4B0999282F88090040B0000FA
:020C10000000E2
:100A3D00E4F51CC297C2B67F107E27120BD5D29754
:100A4D00D2B67F107E27120BD5051CE51CC394036F
:100A5D0040E175A890758929759850E4F587750A58
:100A6D00FF758DFDD28E1209C57F027E00120BE738
:100A7D00E50A70F2D3E51A9414E519940040077550
:100A8D00900AD2B680E0C2B6E4F5907F8D7E20123A
:0E0A9D000BD57590067F467E10120BD580C8D3
:03002300020AAB23
:100AAB00C0E0C0D0309805C29885991BE51BB445B2
:100ABB0005750A008044E51BB44608750AFF75905E
:100ACB00008037E50AF47032E51BB4570575900AC0
:100ADB008026E51BB44105759006801CE51BB453BD
:100AEB00057590058012E51BB444057590098008C7
:0F0AFB00E51BB45103759000D297D0D0D0E032F4
:100C1300E4F58CF58AD2B57F0AFE120BE7C2B52242
:1009C500120C13D28C30B2FD20B2FDAF8CEFFEAD10
:1009D5008A7C00E42DFFEC3EFEE48F208E1FF51E81
:1009E500F51DC28C7F707E94FDAB20AA1FA91EA8A1
:1009F5001DC31208555033E47B3BFAF9F8AF20AE1E
:100A05001FAD1EAC1D120B598E198F1AE51A45190B
:100A15006010C3E51A9464E51994005005120B0A99
:100A2500800E751900751A638006751900751A63AD
:070A3500120B9DAE19AF1A70
:010A3C002297
:100B0A00AB07AA067C037DE81208008F0E7C037DE2
:100B1A00E8AF03AE021208007E007F64CFCDCFCECD
:100B2A00CCCE1208008F0D7C007D64AF03AE02129A
:100B3A0008007E007F0ACFCDCFCECCCE1208008F20
:0F0B4A000CAE02AF037C007D0A1208008D0B2257
:100B9D0075A00E740F250E120BCD75A00D740F25BB
:100BAD000D120BCD75A00B740F250C120BCD75A06E
:100BBD0007740F250BF8E6F5807FC87E00020BD574
:100BE700D3EF9400EE9400400F7DFADDFE7DF7DD34
:080BF700FEEF1F70EB1E80E809
:010BFF0022D3
:080BCD00F8E6F5807FC87E0008
:100BD500E4FDFCC3ED9FEC9E50070DBD00010C80AC
:010BE500F21D
:010BE60022EC
:10094500020A3DE493A3F8E493A34003F68001F281
:1009550008DFF48029E493A3F85407240CC8C333B3
:10096500C4540F4420C8834004F456800146F6DF82
:10097500E4800B0102040810204080900C00E47E06
:10098500019360BCA3FF543F30E509541FFEE49377
:10099500A360010ECF54C025E060A840B8E493A33E
:1009A500FAE493A3F8E493A3C8C582C8CAC583CA69
:1009B500F0A3C8C582C8CAC583CADFE9DEE780BE21
:010C120000E1
:10080000BC000BBE0029EF8DF084FFADF022E4CCDC
:10081000F875F008EF2FFFEE33FEEC33FCEE9DECA5
:10082000984005FCEE9DFE0FD5F0E9E4CEFD22EDEB
:10083000F8F5F0EE8420D21CFEADF075F008EF2F35
:10084000FFED33FD4007985006D5F0F222C398FD26
:050850000FD5F0EA22C3
:100B5900C2D5E830E70FB2D5E4C39BFBE49AFAE4C7
:100B690099F9E498F8EC30E717B2D5120B8F12080F
:100B7900A7E4C39BFBE49AFAE499F9E498F88003A3
:100B89001208A730D50DE4C39FFFE49EFEE49DFD46
:040B9900E49CFC22BA
:10085500EB9FF5F0EA9E42F0E99D42F0EC6480C81A
:0608650064809845F022BA
:10086B0075F008758200EF2FFFEE33FECD33CDCC44
:10087B0033CCC58233C5829BED9AEC99E5829840C7
:10088B000CF582EE9BFEED9AFDEC99FC0FD5F0D6A4
:10089B00E4CEFBE4CDFAE4CCF9A88222B800C1B9CE
:1008AB000059BA002DEC8BF084CFCECDFCE5F0CB0C
:1008BB00F97818EF2FFFEE33FEED33FDEC33FCEB45
:1008CB0033FB10D703994004EB99FB0FD8E5E4F900
:1008DB00FA227818EF2FFFEE33FEED33FDEC33FCED
:1008EB00C933C910D7059BE99A4007EC9BFCE99AE1
:1008FB00F90FD8E0E4C9FAE4CCFB2275F010EF2F26
:10090B00FFEE33FEED33FDCC33CCC833C810D70725
:10091B009BEC9AE899400AED9BFDEC9AFCE899F860
:0E092B000FD5F0DAE4CDFBE4CCFAE4C8F922F3
:00000001FF
