:03000000020800F3
:0C080000787FE4F6D8FD75811A020847E5
:1009C10002171A0A010800011900011A080A0DC0CC
:0F09D100F9A4B0999282F8809004090000000008
:1009FC00758AF5758CFFD28C308DFDC28CC28D2220
:10099700D2AFD2AB758911758DEC758BECD28E7594
:1009A70090FF1209690508E508C3943240F4E4F59D
:0A09B70008AF18AE171208E180E83F
:10096900D2A61209FCC2A630B2FDD28C30B2033035
:100979008DFAC28CAF8CEFFEAD8AEDFF7C007D3A1B
:0E09890012088C8E178F187FF47E010209E190
:1009E100E4FDFCEF24FCFBEE34FFFAC3ED9BEC9A33
:0A09F1005008000DBD00010C80E964
:0109FB0022D9
:1008E100AB07AA067C037DE812088C8F0C7C037D84
:1008F100E8AF03AE0212088C7E007F64CFCDCFCE6D
:10090100CCCE12088C8F0B7C007D64AF03AE02123B
:10091100088C7E007F0ACFCDCFCECCCE12088C8F33
:0F0921000AAE02AF037C007D0A12088C8D0922FA
:03001B00020930A7
:10093000C0E0C0D075D000C000758DEC758B78E537
:100940001AC313F51A05197005751A08F51975906B
:10095000FFE51AF4F5A074092519F8E6240DF8E668
:09096000F590D000D0D0D0E032B7
:10080C00020997E493A3F8E493A34003F68001F262
:10081C0008DFF48029E493A3F85407240CC8C333ED
:10082C00C4540F4420C8834004F456800146F6DFBC
:10083C00E4800B01020408102040809009C1E47E82
:10084C00019360BCA3FF543F30E509541FFEE493B1
:10085C00A360010ECF54C025E060A840B8E493A378
:10086C00FAE493A3F8E493A3C8C582C8CAC583CAA3
:10087C00F0A3C8C582C8CAC583CADFE9DEE780BE5B
:0109E0000016
:10088C00BC000BBE0029EF8DF084FFADF022E4CC50
:10089C00F875F008EF2FFFEE33FEEC33FCEE9DEC19
:1008AC00984005FCEE9DFE0FD5F0E9E4CEFD22ED5F
:1008BC00F8F5F0EE8420D21CFEADF075F008EF2FA9
:1008CC00FFED33FD4007985006D5F0F222C398FD9A
:0508DC000FD5F0EA2237
:00000001FF
