:03000000020800F3
:0C080000787FE4F6D8FD75811A020847E5
:1009E60002170000010800011900011A080A0DC0CB
:0F09F600F9A4B0999282F88090040900000000E3
:10093000D2AFD2AB758919758DEC758BECD28E75F3
:1009400090FF12096F0508E508C3943240F4E4F5FE
:1009500008E5189402E517940040E7D3E518942CB5
:0F096000E517940150DCAF18AE171208E180D3F1
:10096F00C2B2D2B27F057E00120A06C2B2D2B2E480
:10097F00F58CF58AD28C30B3FD20B3FDC28CAF8CD1
:10098F00EFFEAD8AEDFF7C007D3A12088CEF24F468
:0E099F00F518EE34FFF5177FC87E00020A0639
:100A0600E4FDFCEF24FCFBEE34FFFAC3ED9BEC9A0D
:0A0A16005008000DBD00010C80E93E
:010A200022B3
:1008E100AB07AA067C037DE812088C8F097C037D87
:1008F100E8AF03AE0212088C7E007F64CFCDCFCE6D
:10090100CCCE12088C8F0A7C007D64AF03AE02123C
:10091100088C7E007F0ACFCDCFCECCCE12088C8F33
:0F0921000BAE02AF037C007D0A12088C8D0C22F6
:03001B000209AD2A
:1009AD00C0E0C0D075D000C000758DEC758B78E5BA
:1009BD001AC313F51A05197005751A08F5197590EE
:1009CD00FFE51AF4F5A074092519F8E6240DF8E6EB
:0909DD00F590D000D0D0D0E0323A
:10080C00020930E493A3F8E493A34003F68001F2C9
:10081C0008DFF48029E493A3F85407240CC8C333ED
:10082C00C4540F4420C8834004F456800146F6DFBC
:10083C00E4800B01020408102040809009E6E47E5D
:10084C00019360BCA3FF543F30E509541FFEE493B1
:10085C00A360010ECF54C025E060A840B8E493A378
:10086C00FAE493A3F8E493A3C8C582C8CAC583CAA3
:10087C00F0A3C8C582C8CAC583CADFE9DEE780BE5B
:010A050000F0
:10088C00BC000BBE0029EF8DF084FFADF022E4CC50
:10089C00F875F008EF2FFFEE33FEEC33FCEE9DEC19
:1008AC00984005FCEE9DFE0FD5F0E9E4CEFD22ED5F
:1008BC00F8F5F0EE8420D21CFEADF075F008EF2FA9
:1008CC00FFED33FD4007985006D5F0F222C398FD9A
:0508DC000FD5F0EA2237
:00000001FF
