:03000000020939B9
:0C093900787FE4F6D8FD7581200209806B
:100B84000A0CC0F9A4B0999282F88090040800007D
:020B940000005F
:100A4200E4F518C2A47F147E00120B6BD2A47F0AB5
:100A52007E00120B6B0518E518C3940340E57589F7
:100A620009D28CE4F58CF58A43B0041209C57F02E1
:100A72007E00120B6BD3E5179428E516940040050F
:100A820075900A80E6E4F5907F8D7E20120B9775B3
:0E0A920090067F107E27120B97E4F59080CD22
:100BA900E4F58CF58AD2B57F0AFE120B6BC2B52229
:1009C500E4F520F51FF51EF51D120BA930B2FD202B
:1009D500B2FDAF8CEFFEAD8A7C00E42DFFEC3EFE50
:1009E500E48F1C8E1BF51AF5197F707E94FDAB1CE8
:1009F500AA1BA91AA819C31208555033E47B3BFA60
:100A0500F9F8AF1CAE1BAD1AAC19120AEF8E168F92
:100A150017E51745166010C3E5179464E5169400AD
:100A25005005120AA0800E751600751763800675AD
:0C0A35001600751763120B33AE16AF17D6
:010A41002292
:100AA000AB07AA067C037DE81208008F0B7C037D50
:100AB000E8AF03AE021208007E007F64CFCDCFCE38
:100AC000CCCE1208008F0A7C007D64AF03AE021208
:100AD00008007E007F0ACFCDCFCECCCE1208008F8B
:0F0AE00009AE02AF037C007D0A1208008D0822C8
:100B330075A00E740C250B120B6375A00D740C2598
:100B43000A120B6375A00B740C2509120B6375A0B5
:100B530007740C2508F8E6F5807F047E00020B6B12
:080B6300F8E6F5807F047E0036
:100B6B00D3EF9400EE9400400F7DFADDFE7DF7DDB0
:080B7B00FEEF1F70EB1E80E885
:010B8300224F
:100B9700E4FDFCC3ED9FEC9E50070DBD00010C80EA
:010BA700F25B
:010BA800222A
:10094500020A42E493A3F8E493A34003F68001F27C
:1009550008DFF48029E493A3F85407240CC8C333B3
:10096500C4540F4420C8834004F456800146F6DF82
:10097500E4800B0102040810204080900B84E47E83
:10098500019360BCA3FF543F30E509541FFEE49377
:10099500A360010ECF54C025E060A840B8E493A33E
:1009A500FAE493A3F8E493A3C8C582C8CAC583CA69
:1009B500F0A3C8C582C8CAC583CADFE9DEE780BE21
:010B9600005E
:10080000BC000BBE0029EF8DF084FFADF022E4CCDC
:10081000F875F008EF2FFFEE33FEEC33FCEE9DECA5
:10082000984005FCEE9DFE0FD5F0E9E4CEFD22EDEB
:10083000F8F5F0EE8420D21CFEADF075F008EF2F35
:10084000FFED33FD4007985006D5F0F222C398FD26
:050850000FD5F0EA22C3
:100AEF00C2D5E830E70FB2D5E4C39BFBE49AFAE432
:100AFF0099F9E498F8EC30E717B2D5120B251208E4
:100B0F00A7E4C39BFBE49AFAE499F9E498F880030D
:100B1F001208A730D50DE4C39FFFE49EFEE49DFDB0
:040B2F00E49CFC2224
:10085500EB9FF5F0EA9E42F0E99D42F0EC6480C81A
:0608650064809845F022BA
:10086B0075F008758200EF2FFFEE33FECD33CDCC44
:10087B0033CCC58233C5829BED9AEC99E5829840C7
:10088B000CF582EE9BFEED9AFDEC99FC0FD5F0D6A4
:10089B00E4CEFBE4CDFAE4CCF9A88222B800C1B9CE
:1008AB000059BA002DEC8BF084CFCECDFCE5F0CB0C
:1008BB00F97818EF2FFFEE33FEED33FDEC33FCEB45
:1008CB0033FB10D703994004EB99FB0FD8E5E4F900
:1008DB00FA227818EF2FFFEE33FEED33FDEC33FCED
:1008EB00C933C910D7059BE99A4007EC9BFCE99AE1
:1008FB00F90FD8E0E4C9FAE4CCFB2275F010EF2F26
:10090B00FFEE33FEED33FDCC33CCC833C810D70725
:10091B009BEC9AE899400AED9BFDEC9AFCE899F860
:0E092B000FD5F0DAE4CDFBE4CCFAE4C8F922F3
:00000001FF
