:03000000020800F3
:0C080000787FE4F6D8FD75811A020847E5
:1009C80002171A0A010800011900011A080A0DC0C5
:0F09D800F9A4B0999282F8809004090000000001
:100A0300758AF5758CFFD28C308DFDC28CC28D2218
:10099E00D2AFD2AB758911758DEC758BECD28E758D
:1009AE0090FF1209690508E508C3943240F4E4F596
:0A09BE0008AF18AE171208E180E838
:10096900D2A6120A03C2A630B2FDD28C30B20A2036
:100979008D07E58CC3943840F3C28CAF8CEFFEAD84
:100989008AEDFF7C007D3A12088C8E178F187FC87C
:050999007E000209E8E8
:1009E800E4FDFCEF24FCFBEE34FFFAC3ED9BEC9A2C
:0A09F8005008000DBD00010C80E95D
:010A020022D1
:1008E100AB07AA067C037DE812088C8F0C7C037D84
:1008F100E8AF03AE0212088C7E007F64CFCDCFCE6D
:10090100CCCE12088C8F0B7C007D64AF03AE02123B
:10091100088C7E007F0ACFCDCFCECCCE12088C8F33
:0F0921000AAE02AF037C007D0A12088C8D0922FA
:03001B00020930A7
:10093000C0E0C0D075D000C000758DEC758B78E537
:100940001AC313F51A05197005751A08F51975906B
:10095000FFE51AF4F5A074092519F8E6240DF8E668
:09096000F590D000D0D0D0E032B7
:10080C0002099EE493A3F8E493A34003F68001F25B
:10081C0008DFF48029E493A3F85407240CC8C333ED
:10082C00C4540F4420C8834004F456800146F6DFBC
:10083C00E4800B01020408102040809009C8E47E7B
:10084C00019360BCA3FF543F30E509541FFEE493B1
:10085C00A360010ECF54C025E060A840B8E493A378
:10086C00FAE493A3F8E493A3C8C582C8CAC583CAA3
:10087C00F0A3C8C582C8CAC583CADFE9DEE780BE5B
:0109E700000F
:10088C00BC000BBE0029EF8DF084FFADF022E4CC50
:10089C00F875F008EF2FFFEE33FEEC33FCEE9DEC19
:1008AC00984005FCEE9DFE0FD5F0E9E4CEFD22ED5F
:1008BC00F8F5F0EE8420D21CFEADF075F008EF2FA9
:1008CC00FFED33FD4007985006D5F0F222C398FD9A
:0508DC000FD5F0EA2237
:00000001FF
