:03000000020923CF
:0C092300787FE4F6D8FD75811C02096A9B
:100B14000A0CC0F9A4B0999282F8809004080000ED
:020B24000000CF
:100A8F00E4F518C2A47F147E00120AFBD2A47F0AD9
:100A9F007E00120AFB0518E518C3940340E575891B
:100AAF0009D28CE4F58CF58A1209FE7F027E0012C2
:040ABF000AFB80F4BA
:100B3900E4F58CF58AD2B57F0AFE120AFBC2B5220A
:1009FE00E4F51CF51BF51AF519120B3930B2FD2072
:100A0E00B2FDC28CAF8CEFFEAD8A7C00E42DFFEC04
:100A1E003EFEE4FD7B3BFAF9F8120A4B8E168F1759
:100A2E007FC87E00120B27D3E5179464E516940059
:0C0A3E004006751600751763AE16AF1762
:010A4A002289
:1009AF00AB07AA067C037DE81208008F0B7C037D42
:1009BF00E8AF03AE021208007E007F64CFCDCFCE2A
:1009CF00CCCE1208008F0A7C007D64AF03AE0212FA
:1009DF0008007E007F0ACFCDCFCECCCE1208008F7D
:0F09EF0009AE02AF037C007D0A1208008D0822BA
:100AC30075A00E740C250B120AF375A00D740C257A
:100AD3000A120AF375A00B740C2509120AF375A008
:100AE30007740C2508F8E6F5807F047E00020AFBF4
:080AF300F8E6F5807F047E00A7
:100AFB00D3EF9400EE9400400F7DFADDFE7DF7DD21
:080B0B00FEEF1F70EB1E80E8F5
:010B130022BF
:100B2700E4FDFCC3ED9FEC9E50070DBD00010C805A
:010B3700F2CB
:010B3800229A
:10092F00020A8FE493A3F8E493A34003F68001F245
:10093F0008DFF48029E493A3F85407240CC8C333C9
:10094F00C4540F4420C8834004F456800146F6DF98
:10095F00E4800B0102040810204080900B14E47E09
:10096F00019360BCA3FF543F30E509541FFEE4938D
:10097F00A360010ECF54C025E060A840B8E493A354
:10098F00FAE493A3F8E493A3C8C582C8CAC583CA7F
:10099F00F0A3C8C582C8CAC583CADFE9DEE780BE37
:010B260000CE
:10080000BC000BBE0029EF8DF084FFADF022E4CCDC
:10081000F875F008EF2FFFEE33FEEC33FCEE9DECA5
:10082000984005FCEE9DFE0FD5F0E9E4CEFD22EDEB
:10083000F8F5F0EE8420D21CFEADF075F008EF2F35
:10084000FFED33FD4007985006D5F0F222C398FD26
:050850000FD5F0EA22C3
:100A4B00C2D5E830E70FB2D5E4C39BFBE49AFAE4D6
:100A5B0099F9E498F8EC30E717B2D5120A8112082D
:100A6B0091E4C39BFBE49AFAE499F9E498F88003C8
:100A7B0012089130D50DE4C39FFFE49EFEE49DFD6B
:040A8B00E49CFC22C9
:1008550075F008758200EF2FFFEE33FECD33CDCC5A
:1008650033CCC58233C5829BED9AEC99E5829840DD
:100875000CF582EE9BFEED9AFDEC99FC0FD5F0D6BA
:10088500E4CEFBE4CDFAE4CCF9A88222B800C1B9E4
:100895000059BA002DEC8BF084CFCECDFCE5F0CB22
:1008A500F97818EF2FFFEE33FEED33FDEC33FCEB5B
:1008B50033FB10D703994004EB99FB0FD8E5E4F916
:1008C500FA227818EF2FFFEE33FEED33FDEC33FC03
:1008D500C933C910D7059BE99A4007EC9BFCE99AF7
:1008E500F90FD8E0E4C9FAE4CCFB2275F010EF2F3C
:1008F500FFEE33FEED33FDCC33CCC833C810D7073C
:100905009BEC9AE899400AED9BFDEC9AFCE899F876
:0E0915000FD5F0DAE4CDFBE4CCFAE4C8F92209
:00000001FF
