:030000000208E310
:0C08E300787FE4F6D8FD7581100208A6AD
:1008A6001208CAE4F5801208CD1208CAE4F58012CF
:1008B60008CD1208CAE4F580D28EE50DB4FFFB75AB
:0408C600900A80F61E
:0708CA007580FF7F887E139B
:1008D100E4FDFCC3ED9FEC9E50070DBD00010C80B3
:0108E100F224
:0108E20022F3
:0300230002086E62
:10086E00C0E0C0D075D000C004C005C006C007856A
:10087E00D00CC29885990E1208CA758000E50EB488
:10088E004506630DFF759000850CD0D007D006D0BD
:08089E0005D004D0D0D0E032F7
:03000B00020800E8
:10080000C0E0C083C082C0D0F51085D00A858209BF
:10081000858308C28C758CB1758AE0D28CE50D7029
:1008200039E50EB45102802FE50EB45305759005DD
:100830008028E50EB44405759009801EE50EB4418C
:10084000057590068014E50EB4570FE50FD3940A92
:10085000400575900A8003759000E510850AD085E3
:0E0860000982850883D0D0D082D083D0E032C8
:00000001FF
