:0300000002094BA7
:0C094B00787FE4F6D8FD758111020800E9
:10080000E4F50EC2807F107E27120939D2807F1056
:100810007E27120939050EE50EC3940340E575895C
:1008200021D2B9C28D758CB1758AE0D28C758DFDDF
:10083000D28EE4F58775985075A8927580FFF59073
:10084000F5A0F50DE4F50BD2A77F01FE120939C220
:10085000A77F2D7E0012093930B2157F057E001268
:100860000939050BE50BD394FA40ED750BFA80E8D6
:10087000850B10E50DB4FFCCE510D3940A40057547
:10088000900A80C0E4F5907F8D7E20120939759022
:0D089000067FC37EA2120939E4F59080A70F
:10093900E4FDFCC3ED9FEC9E50070DBD00010C804A
:01094900F2BB
:01094A00228A
:0300230002091AB5
:10091A00C0E0C0D085D00CC29885990FE50FB443CA
:0F092A0006630DFF759000850CD0D0D0D0E03261
:03000B0002089D4B
:10089D00C0E0C083C082C0D0F51185D00A85820921
:1008AD00858308C28C758CB1758AE0D28CE50D708C
:1008BD0048E50FB45102803BE50FB4530875900520
:1008CD007580098034E50FB4440875900975800C66
:1008DD008027E50FB44108759006758003801AE5F1
:1008ED000FB45715E510D3940A400875900A75801A
:1008FD000680067590007580FFE511850AD0850983
:0D090D0082850883D0D0D082D083D0E03224
:00000001FF
