:03000000020800F3
:0C080000787FE4F6D8FD75811B020847E4
:100933000119000117000118FF0108FF011A040A39
:100943000DC0F9A4B0999282F880900409000000C8
:0109530000A3
:1009110012088CE508C3940040F6E508D394095009
:10092100EF850B0C850A0B85090A8508097508FFF7
:0209310080DE66
:10088C00751B80E4F9FFE51AFDEFFB3395E0FAC325
:10089C00EB9D7480F86A98505B7590FFE51BF4F53E
:1008AC00A0E5A0F4FEEFFDC3E51A9DFD74082DF83C
:1008BC00E6240DF8E6F5905306F0E4FDBE800FE457
:1008CC00F519E51869601A89187517018013C3E5C5
:1008DC001764809485500A0517E517B4050385182D
:1008EC000809EE25E0FE0DBD04D2E51BA2E713F5C9
:1008FC001B0F80920519E519B40509E4F517751855
:04090C00FF7508FF6C
:0109100022C4
:10080C00020911E493A3F8E493A34003F68001F2E8
:10081C0008DFF48029E493A3F85407240CC8C333ED
:10082C00C4540F4420C8834004F456800146F6DFBC
:10083C00E4800B0102040810204080900933E47E10
:10084C00019360BCA3FF543F30E509541FFEE493B1
:10085C00A360010ECF54C025E060A840B8E493A378
:10086C00FAE493A3F8E493A3C8C582C8CAC583CAA3
:10087C00F0A3C8C582C8CAC583CADFE9DEE780BE5B
:0109540000A2
:00000001FF
