:0300000002089063
:0C089000787FE4F6D8FD7581160208D7C9
:1009C7000A0CC0F9A4B0999282F88090040800003C
:0209D70000001E
:0E09A70012091C740C2FF8E6F5907FC87E0034
:1009B500E4FDFCC3ED9FEC9E50070DBD00010C80CE
:0109C500F23F
:0109C600220E
:10080000E4FBFAE4F51675A00E7C007D64AF03AE40
:100810000212091C7C007D0A1209A775A00D7C003C
:100820007D64AF03AE0212091C7C007D0A12091C14
:10083000740C2D1209AD75A00B7C007D64AF03AE66
:100840000212091C7E007F0ACFCDCFCECCCE12097A
:10085000A775A0077C007D64AF03AE0212091C7E61
:10086000007F0ACFCDCFCECCCE12091C740C2D1236
:1008700009AD0516E516C39414408B0BBB00010AA5
:10088000EB640F7003EA64276003020803020800A8
:10089C00020800E493A3F8E493A34003F68001F26A
:1008AC0008DFF48029E493A3F85407240CC8C3335D
:1008BC00C4540F4420C8834004F456800146F6DF2C
:1008CC00E4800B01020408102040809009C7E47EEC
:1008DC00019360BCA3FF543F30E509541FFEE49321
:1008EC00A360010ECF54C025E060A840B8E493A3E8
:1008FC00FAE493A3F8E493A3C8C582C8CAC583CA13
:10090C00F0A3C8C582C8CAC583CADFE9DEE780BECA
:0109D900001D
:10091C00C2D5EC30E709B2D5E4C39DFDE49CFCEEF6
:10092C0030E715B2D5E4C39FFFE49EFE120952C313
:10093C00E49DFDE49CFC800312095230D507C3E40E
:06094C009FFFE49EFE2265
:10095200BC000BBE0029EF8DF084FFADF022E4CC89
:10096200F875F008EF2FFFEE33FEEC33FCEE9DEC52
:10097200984005FCEE9DFE0FD5F0E9E4CEFD22ED98
:10098200F8F5F0EE8420D21CFEADF075F008EF2FE2
:10099200FFED33FD4007985006D5F0F222C398FDD3
:0509A2000FD5F0EA2270
:00000001FF
